{
  "_format": "hh-sol-artifact-1",
  "contractName": "KicksClaimVault",
  "sourceName": "contracts/KicksClaimVault.sol",
  "abi": [
    {
      "inputs": [
        {
          "internalType": "address",
          "name": "_kicksToken",
          "type": "address"
        },
        {
          "internalType": "address",
          "name": "_admin",
          "type": "address"
        },
        {
          "internalType": "address",
          "name": "_signer",
          "type": "address"
        }
      ],
      "stateMutability": "nonpayable",
      "type": "constructor"
    },
    {
      "inputs": [],
      "name": "AccessControlBadConfirmation",
      "type": "error"
    },
    {
      "inputs": [
        {
          "internalType": "address",
          "name": "account",
          "type": "address"
        },
        {
          "internalType": "bytes32",
          "name": "neededRole",
          "type": "bytes32"
        }
      ],
      "name": "AccessControlUnauthorizedAccount",
      "type": "error"
    },
    {
      "inputs": [],
      "name": "ClaimExpired",
      "type": "error"
    },
    {
      "inputs": [],
      "name": "ECDSAInvalidSignature",
      "type": "error"
    },
    {
      "inputs": [
        {
          "internalType": "uint256",
          "name": "length",
          "type": "uint256"
        }
      ],
      "name": "ECDSAInvalidSignatureLength",
      "type": "error"
    },
    {
      "inputs": [
        {
          "internalType": "bytes32",
          "name": "s",
          "type": "bytes32"
        }
      ],
      "name": "ECDSAInvalidSignatureS",
      "type": "error"
    },
    {
      "inputs": [],
      "name": "EnforcedPause",
      "type": "error"
    },
    {
      "inputs": [],
      "name": "ExpectedPause",
      "type": "error"
    },
    {
      "inputs": [],
      "name": "InsufficientBalance",
      "type": "error"
    },
    {
      "inputs": [],
      "name": "InvalidShortString",
      "type": "error"
    },
    {
      "inputs": [],
      "name": "InvalidSignature",
      "type": "error"
    },
    {
      "inputs": [],
      "name": "NonceAlreadyUsed",
      "type": "error"
    },
    {
      "inputs": [],
      "name": "ReentrancyGuardReentrantCall",
      "type": "error"
    },
    {
      "inputs": [
        {
          "internalType": "address",
          "name": "token",
          "type": "address"
        }
      ],
      "name": "SafeERC20FailedOperation",
      "type": "error"
    },
    {
      "inputs": [
        {
          "internalType": "string",
          "name": "str",
          "type": "string"
        }
      ],
      "name": "StringTooLong",
      "type": "error"
    },
    {
      "inputs": [],
      "name": "ZeroAddress",
      "type": "error"
    },
    {
      "inputs": [],
      "name": "ZeroAmount",
      "type": "error"
    },
    {
      "anonymous": false,
      "inputs": [
        {
          "indexed": true,
          "internalType": "address",
          "name": "player",
          "type": "address"
        },
        {
          "indexed": true,
          "internalType": "uint256",
          "name": "gameId",
          "type": "uint256"
        },
        {
          "indexed": false,
          "internalType": "uint256",
          "name": "amount",
          "type": "uint256"
        },
        {
          "indexed": false,
          "internalType": "uint256",
          "name": "nonce",
          "type": "uint256"
        }
      ],
      "name": "ClaimProcessed",
      "type": "event"
    },
    {
      "anonymous": false,
      "inputs": [
        {
          "indexed": true,
          "internalType": "address",
          "name": "from",
          "type": "address"
        },
        {
          "indexed": false,
          "internalType": "uint256",
          "name": "amount",
          "type": "uint256"
        }
      ],
      "name": "Deposited",
      "type": "event"
    },
    {
      "anonymous": false,
      "inputs": [],
      "name": "EIP712DomainChanged",
      "type": "event"
    },
    {
      "anonymous": false,
      "inputs": [
        {
          "indexed": false,
          "internalType": "address",
          "name": "account",
          "type": "address"
        }
      ],
      "name": "Paused",
      "type": "event"
    },
    {
      "anonymous": false,
      "inputs": [
        {
          "indexed": true,
          "internalType": "bytes32",
          "name": "role",
          "type": "bytes32"
        },
        {
          "indexed": true,
          "internalType": "bytes32",
          "name": "previousAdminRole",
          "type": "bytes32"
        },
        {
          "indexed": true,
          "internalType": "bytes32",
          "name": "newAdminRole",
          "type": "bytes32"
        }
      ],
      "name": "RoleAdminChanged",
      "type": "event"
    },
    {
      "anonymous": false,
      "inputs": [
        {
          "indexed": true,
          "internalType": "bytes32",
          "name": "role",
          "type": "bytes32"
        },
        {
          "indexed": true,
          "internalType": "address",
          "name": "account",
          "type": "address"
        },
        {
          "indexed": true,
          "internalType": "address",
          "name": "sender",
          "type": "address"
        }
      ],
      "name": "RoleGranted",
      "type": "event"
    },
    {
      "anonymous": false,
      "inputs": [
        {
          "indexed": true,
          "internalType": "bytes32",
          "name": "role",
          "type": "bytes32"
        },
        {
          "indexed": true,
          "internalType": "address",
          "name": "account",
          "type": "address"
        },
        {
          "indexed": true,
          "internalType": "address",
          "name": "sender",
          "type": "address"
        }
      ],
      "name": "RoleRevoked",
      "type": "event"
    },
    {
      "anonymous": false,
      "inputs": [
        {
          "indexed": true,
          "internalType": "address",
          "name": "oldSigner",
          "type": "address"
        },
        {
          "indexed": true,
          "internalType": "address",
          "name": "newSigner",
          "type": "address"
        }
      ],
      "name": "SignerUpdated",
      "type": "event"
    },
    {
      "anonymous": false,
      "inputs": [
        {
          "indexed": false,
          "internalType": "address",
          "name": "account",
          "type": "address"
        }
      ],
      "name": "Unpaused",
      "type": "event"
    },
    {
      "anonymous": false,
      "inputs": [
        {
          "indexed": true,
          "internalType": "address",
          "name": "to",
          "type": "address"
        },
        {
          "indexed": false,
          "internalType": "uint256",
          "name": "amount",
          "type": "uint256"
        }
      ],
      "name": "Withdrawn",
      "type": "event"
    },
    {
      "inputs": [],
      "name": "ADMIN_ROLE",
      "outputs": [
        {
          "internalType": "bytes32",
          "name": "",
          "type": "bytes32"
        }
      ],
      "stateMutability": "view",
      "type": "function"
    },
    {
      "inputs": [],
      "name": "DEFAULT_ADMIN_ROLE",
      "outputs": [
        {
          "internalType": "bytes32",
          "name": "",
          "type": "bytes32"
        }
      ],
      "stateMutability": "view",
      "type": "function"
    },
    {
      "inputs": [],
      "name": "SIGNER_ROLE",
      "outputs": [
        {
          "internalType": "bytes32",
          "name": "",
          "type": "bytes32"
        }
      ],
      "stateMutability": "view",
      "type": "function"
    },
    {
      "inputs": [
        {
          "internalType": "uint256",
          "name": "gameId",
          "type": "uint256"
        },
        {
          "internalType": "uint256",
          "name": "amount",
          "type": "uint256"
        },
        {
          "internalType": "uint256",
          "name": "nonce",
          "type": "uint256"
        },
        {
          "internalType": "uint256",
          "name": "expiry",
          "type": "uint256"
        },
        {
          "internalType": "bytes",
          "name": "signature",
          "type": "bytes"
        }
      ],
      "name": "claimWin",
      "outputs": [],
      "stateMutability": "nonpayable",
      "type": "function"
    },
    {
      "inputs": [
        {
          "internalType": "uint256",
          "name": "amount",
          "type": "uint256"
        }
      ],
      "name": "deposit",
      "outputs": [],
      "stateMutability": "nonpayable",
      "type": "function"
    },
    {
      "inputs": [],
      "name": "eip712Domain",
      "outputs": [
        {
          "internalType": "bytes1",
          "name": "fields",
          "type": "bytes1"
        },
        {
          "internalType": "string",
          "name": "name",
          "type": "string"
        },
        {
          "internalType": "string",
          "name": "version",
          "type": "string"
        },
        {
          "internalType": "uint256",
          "name": "chainId",
          "type": "uint256"
        },
        {
          "internalType": "address",
          "name": "verifyingContract",
          "type": "address"
        },
        {
          "internalType": "bytes32",
          "name": "salt",
          "type": "bytes32"
        },
        {
          "internalType": "uint256[]",
          "name": "extensions",
          "type": "uint256[]"
        }
      ],
      "stateMutability": "view",
      "type": "function"
    },
    {
      "inputs": [],
      "name": "getBalance",
      "outputs": [
        {
          "internalType": "uint256",
          "name": "",
          "type": "uint256"
        }
      ],
      "stateMutability": "view",
      "type": "function"
    },
    {
      "inputs": [],
      "name": "getDomainSeparator",
      "outputs": [
        {
          "internalType": "bytes32",
          "name": "",
          "type": "bytes32"
        }
      ],
      "stateMutability": "view",
      "type": "function"
    },
    {
      "inputs": [
        {
          "internalType": "address",
          "name": "player",
          "type": "address"
        }
      ],
      "name": "getPlayerNonce",
      "outputs": [
        {
          "internalType": "uint256",
          "name": "",
          "type": "uint256"
        }
      ],
      "stateMutability": "view",
      "type": "function"
    },
    {
      "inputs": [
        {
          "internalType": "bytes32",
          "name": "role",
          "type": "bytes32"
        }
      ],
      "name": "getRoleAdmin",
      "outputs": [
        {
          "internalType": "bytes32",
          "name": "",
          "type": "bytes32"
        }
      ],
      "stateMutability": "view",
      "type": "function"
    },
    {
      "inputs": [
        {
          "internalType": "bytes32",
          "name": "role",
          "type": "bytes32"
        },
        {
          "internalType": "address",
          "name": "account",
          "type": "address"
        }
      ],
      "name": "grantRole",
      "outputs": [],
      "stateMutability": "nonpayable",
      "type": "function"
    },
    {
      "inputs": [
        {
          "internalType": "bytes32",
          "name": "role",
          "type": "bytes32"
        },
        {
          "internalType": "address",
          "name": "account",
          "type": "address"
        }
      ],
      "name": "hasRole",
      "outputs": [
        {
          "internalType": "bool",
          "name": "",
          "type": "bool"
        }
      ],
      "stateMutability": "view",
      "type": "function"
    },
    {
      "inputs": [
        {
          "internalType": "uint256",
          "name": "nonce",
          "type": "uint256"
        }
      ],
      "name": "isNonceUsed",
      "outputs": [
        {
          "internalType": "bool",
          "name": "",
          "type": "bool"
        }
      ],
      "stateMutability": "view",
      "type": "function"
    },
    {
      "inputs": [],
      "name": "kicksToken",
      "outputs": [
        {
          "internalType": "contract IERC20",
          "name": "",
          "type": "address"
        }
      ],
      "stateMutability": "view",
      "type": "function"
    },
    {
      "inputs": [],
      "name": "pause",
      "outputs": [],
      "stateMutability": "nonpayable",
      "type": "function"
    },
    {
      "inputs": [],
      "name": "paused",
      "outputs": [
        {
          "internalType": "bool",
          "name": "",
          "type": "bool"
        }
      ],
      "stateMutability": "view",
      "type": "function"
    },
    {
      "inputs": [
        {
          "internalType": "address",
          "name": "",
          "type": "address"
        }
      ],
      "name": "playerNonce",
      "outputs": [
        {
          "internalType": "uint256",
          "name": "",
          "type": "uint256"
        }
      ],
      "stateMutability": "view",
      "type": "function"
    },
    {
      "inputs": [
        {
          "internalType": "bytes32",
          "name": "role",
          "type": "bytes32"
        },
        {
          "internalType": "address",
          "name": "callerConfirmation",
          "type": "address"
        }
      ],
      "name": "renounceRole",
      "outputs": [],
      "stateMutability": "nonpayable",
      "type": "function"
    },
    {
      "inputs": [
        {
          "internalType": "bytes32",
          "name": "role",
          "type": "bytes32"
        },
        {
          "internalType": "address",
          "name": "account",
          "type": "address"
        }
      ],
      "name": "revokeRole",
      "outputs": [],
      "stateMutability": "nonpayable",
      "type": "function"
    },
    {
      "inputs": [
        {
          "internalType": "bytes4",
          "name": "interfaceId",
          "type": "bytes4"
        }
      ],
      "name": "supportsInterface",
      "outputs": [
        {
          "internalType": "bool",
          "name": "",
          "type": "bool"
        }
      ],
      "stateMutability": "view",
      "type": "function"
    },
    {
      "inputs": [],
      "name": "unpause",
      "outputs": [],
      "stateMutability": "nonpayable",
      "type": "function"
    },
    {
      "inputs": [
        {
          "internalType": "address",
          "name": "oldSigner",
          "type": "address"
        },
        {
          "internalType": "address",
          "name": "newSigner",
          "type": "address"
        }
      ],
      "name": "updateSigner",
      "outputs": [],
      "stateMutability": "nonpayable",
      "type": "function"
    },
    {
      "inputs": [
        {
          "internalType": "uint256",
          "name": "",
          "type": "uint256"
        }
      ],
      "name": "usedNonces",
      "outputs": [
        {
          "internalType": "bool",
          "name": "",
          "type": "bool"
        }
      ],
      "stateMutability": "view",
      "type": "function"
    },
    {
      "inputs": [
        {
          "internalType": "uint256",
          "name": "amount",
          "type": "uint256"
        },
        {
          "internalType": "address",
          "name": "to",
          "type": "address"
        }
      ],
      "name": "withdraw",
      "outputs": [],
      "stateMutability": "nonpayable",
      "type": "function"
    }
  ],
  "bytecode": "0x6101806040523480156200001257600080fd5b5060405162001d3638038062001d36833981016040819052620000359162000376565b604080518082018252600f81526e12da58dadcd0db185a5b55985d5b1d608a1b60208083019190915282518084019093526001808452603160f81b918401919091528055906200008782600362000226565b610120526200009881600462000226565b61014052815160208084019190912060e052815190820120610100524660a0526200012660e05161010051604080517f8b73c3c69bb8fe3d512ecc4cf759cc79239f7b179b0ffacaa9a75d522b39400f60208201529081019290925260608201524660808201523060a082015260009060c00160405160208183030381529060405280519060200120905090565b60805250503060c0526001600160a01b038316620001575760405163d92e233d60e01b815260040160405180910390fd5b6001600160a01b0382166200017f5760405163d92e233d60e01b815260040160405180910390fd5b6001600160a01b038116620001a75760405163d92e233d60e01b815260040160405180910390fd5b6001600160a01b03831661016052620001c26000836200025f565b50620001ef7fa49807205ce4d355092ef5a8a18f56e8913cf4a201fbe287825b095693c21775836200025f565b506200021c7fe2f4eaae4a9751e85a3e4a7b9587827a877f29914755229b07a7b2da98285f70826200025f565b50505050620005a6565b600060208351101562000246576200023e836200030d565b905062000259565b8162000253848262000465565b5060ff90505b92915050565b6000828152602081815260408083206001600160a01b038516845290915281205460ff1662000304576000838152602081815260408083206001600160a01b03861684529091529020805460ff19166001179055620002bb3390565b6001600160a01b0316826001600160a01b0316847f2f8788117e7eff1d82e926ec794901d17c78024a50270940304540a733656f0d60405160405180910390a450600162000259565b50600062000259565b600080829050601f8151111562000344578260405163305a27a960e01b81526004016200033b919062000531565b60405180910390fd5b8051620003518262000581565b179392505050565b80516001600160a01b03811681146200037157600080fd5b919050565b6000806000606084860312156200038c57600080fd5b620003978462000359565b9250620003a76020850162000359565b9150620003b76040850162000359565b90509250925092565b634e487b7160e01b600052604160045260246000fd5b600181811c90821680620003eb57607f821691505b6020821081036200040c57634e487b7160e01b600052602260045260246000fd5b50919050565b601f8211156200046057600081815260208120601f850160051c810160208610156200043b5750805b601f850160051c820191505b818110156200045c5782815560010162000447565b5050505b505050565b81516001600160401b03811115620004815762000481620003c0565b6200049981620004928454620003d6565b8462000412565b602080601f831160018114620004d15760008415620004b85750858301515b600019600386901b1c1916600185901b1785556200045c565b600085815260208120601f198616915b828110156200050257888601518255948401946001909101908401620004e1565b5085821015620005215787850151600019600388901b60f8161c191681555b5050505050600190811b01905550565b600060208083528351808285015260005b81811015620005605785810183015185820160400152820162000542565b506000604082860101526040601f19601f8301168501019250505092915050565b805160208083015191908110156200040c5760001960209190910360031b1b16919050565b60805160a05160c05160e0516101005161012051610140516101605161170062000636600039600081816101d40152818161040d015281816104b00152818161056f0152818161082901528181610a3a0152610b1501526000610dc101526000610d9401526000610fa101526000610f7901526000610ed401526000610efe01526000610f2801526117006000f3fe608060405234801561001057600080fd5b50600436106101575760003560e01c806368efccbb116100c3578063a1ebf35d1161007c578063a1ebf35d14610337578063a217fddf1461034c578063b6b55f2514610354578063d547741f14610367578063db7a46f71461037a578063ed24911d1461038d57600080fd5b806368efccbb146102b057806375b238fc146102d95780638456cb59146102ee57806384b0196e146102f65780638fd016e81461031157806391d148541461032457600080fd5b80632f2ff15d116101155780632f2ff15d1461023157806336568abe146102445780633f4ba83a146102575780635c975abb1461025f5780635d00bb121461026a5780636717e41c1461028d57600080fd5b8062f714ce1461015c57806301ffc9a71461017157806312065fe01461019957806315e53246146101af5780631c054367146101cf578063248a9ca31461020e575b600080fd5b61016f61016a3660046113cb565b610395565b005b61018461017f3660046113f7565b610520565b60405190151581526020015b60405180910390f35b6101a1610557565b604051908152602001610190565b6101a16101bd366004611428565b60066020526000908152604090205481565b6101f67f000000000000000000000000000000000000000000000000000000000000000081565b6040516001600160a01b039091168152602001610190565b6101a161021c366004611443565b60009081526020819052604090206001015490565b61016f61023f3660046113cb565b6105e7565b61016f6102523660046113cb565b610612565b61016f61064a565b60025460ff16610184565b610184610278366004611443565b60009081526005602052604090205460ff1690565b61018461029b366004611443565b60056020526000908152604090205460ff1681565b6101a16102be366004611428565b6001600160a01b031660009081526006602052604090205490565b6101a16000805160206116ab83398151915281565b61016f61066d565b6102fe61068d565b60405161019097969594939291906114a2565b61016f61031f366004611538565b6106d3565b6101846103323660046113cb565b6107ba565b6101a160008051602061168b83398151915281565b6101a1600081565b61016f610362366004611443565b6107e3565b61016f6103753660046113cb565b61088a565b61016f610388366004611562565b6108af565b6101a1610b8e565b6000805160206116ab8339815191526103ad81610b98565b826000036103ce57604051631f2a200560e01b815260040160405180910390fd5b6001600160a01b0382166103f55760405163d92e233d60e01b815260040160405180910390fd5b6040516370a0823160e01b81523060048201526000907f00000000000000000000000000000000000000000000000000000000000000006001600160a01b0316906370a0823190602401602060405180830381865afa15801561045c573d6000803e3d6000fd5b505050506040513d601f19601f8201168201806040525081019061048091906115fa565b9050838110156104a357604051631e9acf1760e31b815260040160405180910390fd5b6104d76001600160a01b037f0000000000000000000000000000000000000000000000000000000000000000168486610ba2565b826001600160a01b03167f7084f5476618d8e60b11ef0d7d3f06914655adb8793e28ff7f018d4c76d505d58560405161051291815260200190565b60405180910390a250505050565b60006001600160e01b03198216637965db0b60e01b148061055157506301ffc9a760e01b6001600160e01b03198316145b92915050565b6040516370a0823160e01b81523060048201526000907f00000000000000000000000000000000000000000000000000000000000000006001600160a01b0316906370a0823190602401602060405180830381865afa1580156105be573d6000803e3d6000fd5b505050506040513d601f19601f820116820180604052508101906105e291906115fa565b905090565b60008281526020819052604090206001015461060281610b98565b61060c8383610c01565b50505050565b6001600160a01b038116331461063b5760405163334bd91960e11b815260040160405180910390fd5b6106458282610c93565b505050565b6000805160206116ab83398151915261066281610b98565b61066a610cfe565b50565b6000805160206116ab83398151915261068581610b98565b61066a610d50565b6000606080600080600060606106a1610d8d565b6106a9610dba565b60408051600080825260208201909252600f60f81b9b939a50919850469750309650945092509050565b6000805160206116ab8339815191526106eb81610b98565b6001600160a01b0382166107125760405163d92e233d60e01b815260040160405180910390fd5b6001600160a01b0383161580159061073d575061073d60008051602061168b833981519152846107ba565b1561075c5761075a60008051602061168b83398151915284610c93565b505b61077460008051602061168b83398151915283610c01565b50816001600160a01b0316836001600160a01b03167f2d025324f0a785e8c12d0a0d91a9caa49df4ef20ff87e0df7213a1d4f3157beb60405160405180910390a3505050565b6000918252602082815260408084206001600160a01b0393909316845291905290205460ff1690565b6000805160206116ab8339815191526107fb81610b98565b8160000361081c57604051631f2a200560e01b815260040160405180910390fd5b6108516001600160a01b037f000000000000000000000000000000000000000000000000000000000000000016333085610de7565b60405182815233907f2da466a7b24304f47e87fa2e1e5a81b9831ce54fec19055ce277ca2f39ba42c49060200160405180910390a25050565b6000828152602081905260409020600101546108a581610b98565b61060c8383610c93565b6108b7610e20565b6108bf610e4a565b846000036108e057604051631f2a200560e01b815260040160405180910390fd5b82421115610901576040516341524ecf60e11b815260040160405180910390fd5b60008481526005602052604090205460ff161561093057604051623f613760e71b815260040160405180910390fd5b604080517f396fac14eeb4d773607729d933c7487a7bdd8db07e983c1444dc2d889e178bb960208201523391810191909152606081018790526080810186905260a0810185905260c0810184905260009060e00160405160208183030381529060405280519060200120905060006109a782610e70565b905060006109eb8286868080601f016020809104026020016040519081016040528093929190818152602001838380828437600092019190915250610e9d92505050565b9050610a0560008051602061168b833981519152826107ba565b610a2257604051638baa579f60e01b815260040160405180910390fd5b6040516370a0823160e01b81523060048201526000907f00000000000000000000000000000000000000000000000000000000000000006001600160a01b0316906370a0823190602401602060405180830381865afa158015610a89573d6000803e3d6000fd5b505050506040513d601f19601f82011682018060405250810190610aad91906115fa565b905088811015610ad057604051631e9acf1760e31b815260040160405180910390fd5b6000888152600560209081526040808320805460ff1916600117905533835260069091528120805491610b0283611613565b90915550610b3c90506001600160a01b037f000000000000000000000000000000000000000000000000000000000000000016338b610ba2565b604080518a8152602081018a90528b9133917fd87a3f3b3833d1f959bcb6d7c5810d9242d8cf6a77a4240184b33859ceccf8b7910160405180910390a350505050610b8660018055565b505050505050565b60006105e2610ec7565b61066a8133610ff2565b6040516001600160a01b0383811660248301526044820183905261064591859182169063a9059cbb906064015b604051602081830303815290604052915060e01b6020820180516001600160e01b038381831617835250505050611034565b6000610c0d83836107ba565b610c8b576000838152602081815260408083206001600160a01b03861684529091529020805460ff19166001179055610c433390565b6001600160a01b0316826001600160a01b0316847f2f8788117e7eff1d82e926ec794901d17c78024a50270940304540a733656f0d60405160405180910390a4506001610551565b506000610551565b6000610c9f83836107ba565b15610c8b576000838152602081815260408083206001600160a01b0386168085529252808320805460ff1916905551339286917ff6391f5c32d9c69d2a47ea670b442974b53935d1edc7fd64eb21e047a839171b9190a4506001610551565b610d066110a5565b6002805460ff191690557f5db9ee0a495bf2e6ff9c91a7834c1ba4fdd244a5e8aa4e537bd38aeae4b073aa335b6040516001600160a01b03909116815260200160405180910390a1565b610d58610e4a565b6002805460ff191660011790557f62e78cea01bee320cd4e420270b5ea74000d11b0c9f74754ebdbfc544b05a258610d333390565b60606105e27f000000000000000000000000000000000000000000000000000000000000000060036110c8565b60606105e27f000000000000000000000000000000000000000000000000000000000000000060046110c8565b6040516001600160a01b03848116602483015283811660448301526064820183905261060c9186918216906323b872dd90608401610bcf565b600260015403610e4357604051633ee5aeb560e01b815260040160405180910390fd5b6002600155565b60025460ff1615610e6e5760405163d93c066560e01b815260040160405180910390fd5b565b6000610551610e7d610ec7565b8360405161190160f01b8152600281019290925260228201526042902090565b600080600080610ead8686611173565b925092509250610ebd82826111c0565b5090949350505050565b6000306001600160a01b037f000000000000000000000000000000000000000000000000000000000000000016148015610f2057507f000000000000000000000000000000000000000000000000000000000000000046145b15610f4a57507f000000000000000000000000000000000000000000000000000000000000000090565b6105e2604080517f8b73c3c69bb8fe3d512ecc4cf759cc79239f7b179b0ffacaa9a75d522b39400f60208201527f0000000000000000000000000000000000000000000000000000000000000000918101919091527f000000000000000000000000000000000000000000000000000000000000000060608201524660808201523060a082015260009060c00160405160208183030381529060405280519060200120905090565b610ffc82826107ba565b6110305760405163e2517d3f60e01b81526001600160a01b0382166004820152602481018390526044015b60405180910390fd5b5050565b600080602060008451602086016000885af180611057576040513d6000823e3d81fd5b50506000513d9150811561106f57806001141561107c565b6001600160a01b0384163b155b1561060c57604051635274afe760e01b81526001600160a01b0385166004820152602401611027565b60025460ff16610e6e57604051638dfc202b60e01b815260040160405180910390fd5b606060ff83146110e2576110db83611279565b9050610551565b8180546110ee9061163a565b80601f016020809104026020016040519081016040528092919081815260200182805461111a9061163a565b80156111675780601f1061113c57610100808354040283529160200191611167565b820191906000526020600020905b81548152906001019060200180831161114a57829003601f168201915b50505050509050610551565b600080600083516041036111ad5760208401516040850151606086015160001a61119f888285856112b8565b9550955095505050506111b9565b50508151600091506002905b9250925092565b60008260038111156111d4576111d4611674565b036111dd575050565b60018260038111156111f1576111f1611674565b0361120f5760405163f645eedf60e01b815260040160405180910390fd5b600282600381111561122357611223611674565b036112445760405163fce698f760e01b815260048101829052602401611027565b600382600381111561125857611258611674565b03611030576040516335e2f38360e21b815260048101829052602401611027565b6060600061128683611387565b604080516020808252818301909252919250600091906020820181803683375050509182525060208101929092525090565b600080807f7fffffffffffffffffffffffffffffff5d576e7357a4501ddfe92f46681b20a08411156112f3575060009150600390508261137d565b604080516000808252602082018084528a905260ff891692820192909252606081018790526080810186905260019060a0016020604051602081039080840390855afa158015611347573d6000803e3d6000fd5b5050604051601f1901519150506001600160a01b0381166113735750600092506001915082905061137d565b9250600091508190505b9450945094915050565b600060ff8216601f81111561055157604051632cd44ac360e21b815260040160405180910390fd5b80356001600160a01b03811681146113c657600080fd5b919050565b600080604083850312156113de57600080fd5b823591506113ee602084016113af565b90509250929050565b60006020828403121561140957600080fd5b81356001600160e01b03198116811461142157600080fd5b9392505050565b60006020828403121561143a57600080fd5b611421826113af565b60006020828403121561145557600080fd5b5035919050565b6000815180845260005b8181101561148257602081850181015186830182015201611466565b506000602082860101526020601f19601f83011685010191505092915050565b60ff60f81b881681526000602060e0818401526114c260e084018a61145c565b83810360408501526114d4818a61145c565b606085018990526001600160a01b038816608086015260a0850187905284810360c0860152855180825283870192509083019060005b818110156115265783518352928401929184019160010161150a565b50909c9b505050505050505050505050565b6000806040838503121561154b57600080fd5b611554836113af565b91506113ee602084016113af565b60008060008060008060a0878903121561157b57600080fd5b86359550602087013594506040870135935060608701359250608087013567ffffffffffffffff808211156115af57600080fd5b818901915089601f8301126115c357600080fd5b8135818111156115d257600080fd5b8a60208285010111156115e457600080fd5b6020830194508093505050509295509295509295565b60006020828403121561160c57600080fd5b5051919050565b60006001820161163357634e487b7160e01b600052601160045260246000fd5b5060010190565b600181811c9082168061164e57607f821691505b60208210810361166e57634e487b7160e01b600052602260045260246000fd5b50919050565b634e487b7160e01b600052602160045260246000fdfee2f4eaae4a9751e85a3e4a7b9587827a877f29914755229b07a7b2da98285f70a49807205ce4d355092ef5a8a18f56e8913cf4a201fbe287825b095693c21775a2646970667358221220461cef294d91416d52973e0098accd77ef1f0b16af0431a978911a41a2d7b34f64736f6c63430008140033",
  "linkReferences": {},
  "deployedLinkReferences": {}
}